{
  "_format": "hh-sol-artifact-1",
  "contractName": "Operations",
  "sourceName": "contracts/Operations.sol",
  "abi": [
    {
      "inputs": [],
      "stateMutability": "nonpayable",
      "type": "constructor"
    },
    {
      "inputs": [
        {
          "internalType": "string",
          "name": "email",
          "type": "string"
        }
      ],
      "name": "MessageReceived",
      "outputs": [
        {
          "components": [
            {
              "internalType": "uint256",
              "name": "id",
              "type": "uint256"
            },
            {
              "internalType": "address",
              "name": "sender",
              "type": "address"
            },
            {
              "internalType": "address",
              "name": "receiver",
              "type": "address"
            },
            {
              "internalType": "string",
              "name": "subject",
              "type": "string"
            },
            {
              "internalType": "string",
              "name": "message",
              "type": "string"
            },
            {
              "internalType": "uint256",
              "name": "timestamp",
              "type": "uint256"
            },
            {
              "internalType": "bool",
              "name": "read",
              "type": "bool"
            },
            {
              "internalType": "bool",
              "name": "shareable",
              "type": "bool"
            },
            {
              "internalType": "address[]",
              "name": "viewedBy",
              "type": "address[]"
            },
            {
              "internalType": "uint256",
              "name": "originalMessageId",
              "type": "uint256"
            },
            {
              "internalType": "string",
              "name": "fileHash",
              "type": "string"
            },
            {
              "internalType": "string",
              "name": "receiversGroup",
              "type": "string"
            },
            {
              "internalType": "enum Chat.DeletionStatus",
              "name": "deleted",
              "type": "uint8"
            }
          ],
          "internalType": "struct Chat.Message[]",
          "name": "",
          "type": "tuple[]"
        }
      ],
      "stateMutability": "view",
      "type": "function"
    },
    {
      "inputs": [
        {
          "internalType": "string",
          "name": "email",
          "type": "string"
        }
      ],
      "name": "MessageSent",
      "outputs": [
        {
          "components": [
            {
              "internalType": "uint256",
              "name": "id",
              "type": "uint256"
            },
            {
              "internalType": "address",
              "name": "sender",
              "type": "address"
            },
            {
              "internalType": "address",
              "name": "receiver",
              "type": "address"
            },
            {
              "internalType": "string",
              "name": "subject",
              "type": "string"
            },
            {
              "internalType": "string",
              "name": "message",
              "type": "string"
            },
            {
              "internalType": "uint256",
              "name": "timestamp",
              "type": "uint256"
            },
            {
              "internalType": "bool",
              "name": "read",
              "type": "bool"
            },
            {
              "internalType": "bool",
              "name": "shareable",
              "type": "bool"
            },
            {
              "internalType": "address[]",
              "name": "viewedBy",
              "type": "address[]"
            },
            {
              "internalType": "uint256",
              "name": "originalMessageId",
              "type": "uint256"
            },
            {
              "internalType": "string",
              "name": "fileHash",
              "type": "string"
            },
            {
              "internalType": "string",
              "name": "receiversGroup",
              "type": "string"
            },
            {
              "internalType": "enum Chat.DeletionStatus",
              "name": "deleted",
              "type": "uint8"
            }
          ],
          "internalType": "struct Chat.Message[]",
          "name": "",
          "type": "tuple[]"
        }
      ],
      "stateMutability": "view",
      "type": "function"
    },
    {
      "inputs": [
        {
          "internalType": "uint256",
          "name": "draftId",
          "type": "uint256"
        }
      ],
      "name": "deleteDraft",
      "outputs": [],
      "stateMutability": "nonpayable",
      "type": "function"
    },
    {
      "inputs": [
        {
          "internalType": "uint256",
          "name": "",
          "type": "uint256"
        }
      ],
      "name": "drafts",
      "outputs": [
        {
          "internalType": "uint256",
          "name": "id",
          "type": "uint256"
        },
        {
          "internalType": "address",
          "name": "sender",
          "type": "address"
        },
        {
          "internalType": "string",
          "name": "subject",
          "type": "string"
        },
        {
          "internalType": "string",
          "name": "message",
          "type": "string"
        },
        {
          "internalType": "bool",
          "name": "shareable",
          "type": "bool"
        },
        {
          "internalType": "string",
          "name": "receiversArray",
          "type": "string"
        },
        {
          "internalType": "string",
          "name": "fileHash",
          "type": "string"
        }
      ],
      "stateMutability": "view",
      "type": "function"
    },
    {
      "inputs": [
        {
          "internalType": "string",
          "name": "email",
          "type": "string"
        }
      ],
      "name": "getDrafts",
      "outputs": [
        {
          "components": [
            {
              "internalType": "uint256",
              "name": "id",
              "type": "uint256"
            },
            {
              "internalType": "address",
              "name": "sender",
              "type": "address"
            },
            {
              "internalType": "string",
              "name": "subject",
              "type": "string"
            },
            {
              "internalType": "string",
              "name": "message",
              "type": "string"
            },
            {
              "internalType": "bool",
              "name": "shareable",
              "type": "bool"
            },
            {
              "internalType": "address[]",
              "name": "receivers",
              "type": "address[]"
            },
            {
              "internalType": "string",
              "name": "receiversArray",
              "type": "string"
            },
            {
              "internalType": "string",
              "name": "fileHash",
              "type": "string"
            }
          ],
          "internalType": "struct Operations.Draft[]",
          "name": "",
          "type": "tuple[]"
        }
      ],
      "stateMutability": "view",
      "type": "function"
    },
    {
      "inputs": [
        {
          "internalType": "string",
          "name": "email",
          "type": "string"
        }
      ],
      "name": "getMessagesCount",
      "outputs": [
        {
          "internalType": "uint256",
          "name": "",
          "type": "uint256"
        }
      ],
      "stateMutability": "view",
      "type": "function"
    },
    {
      "inputs": [
        {
          "internalType": "string",
          "name": "subject",
          "type": "string"
        },
        {
          "internalType": "string",
          "name": "message",
          "type": "string"
        },
        {
          "internalType": "bool",
          "name": "shareable",
          "type": "bool"
        },
        {
          "internalType": "address[]",
          "name": "receivers",
          "type": "address[]"
        },
        {
          "internalType": "string",
          "name": "receiversString",
          "type": "string"
        },
        {
          "internalType": "string",
          "name": "fileHash",
          "type": "string"
        }
      ],
      "name": "saveDraft",
      "outputs": [],
      "stateMutability": "nonpayable",
      "type": "function"
    }
  ],
  "bytecode": "0x608060405234801561001057600080fd5b50739668f5a8ca971ba0be47ce7b04d062fa47781f9d6000806101000a81548173ffffffffffffffffffffffffffffffffffffffff021916908373ffffffffffffffffffffffffffffffffffffffff16021790555073cff6cd2b24087f0994f6f4d495fedd9ae574810f600160006101000a81548173ffffffffffffffffffffffffffffffffffffffff021916908373ffffffffffffffffffffffffffffffffffffffff160217905550613632806100c96000396000f3fe608060405234801561001057600080fd5b506004361061007d5760003560e01c8063bdc68c101161005b578063bdc68c1014610104578063db80b88d14610134578063e431ec6d14610164578063f7d0fdc3146101805761007d565b80633df3e92f1461008257806383145512146100b25780639932ed8c146100e8575b600080fd5b61009c60048036038101906100979190612245565b6101b0565b6040516100a991906122a7565b60405180910390f35b6100cc60048036038101906100c791906122ee565b610374565b6040516100df97969594939291906123f6565b60405180910390f35b61010260048036038101906100fd91906122ee565b610613565b005b61011e60048036038101906101199190612245565b61088a565b60405161012b9190612815565b60405180910390f35b61014e60048036038101906101499190612245565b610ecb565b60405161015b91906129c5565b60405180910390f35b61017e60048036038101906101799190612ac9565b611557565b005b61019a60048036038101906101959190612245565b6117f5565b6040516101a79190612815565b60405180910390f35b600080600090506000600160009054906101000a900473ffffffffffffffffffffffffffffffffffffffff1673ffffffffffffffffffffffffffffffffffffffff1663bcaad3856040518163ffffffff1660e01b8152600401600060405180830381865afa158015610226573d6000803e3d6000fd5b505050506040513d6000823e3d601f19601f8201168201806040525081019061024f9190613052565b905060005b81518110156103695760008054906101000a900473ffffffffffffffffffffffffffffffffffffffff1673ffffffffffffffffffffffffffffffffffffffff1663bf40fac1866040518263ffffffff1660e01b81526004016102b6919061309b565b602060405180830381865afa1580156102d3573d6000803e3d6000fd5b505050506040513d601f19601f820116820180604052508101906102f791906130bd565b73ffffffffffffffffffffffffffffffffffffffff168282815181106103205761031f6130ea565b5b60200260200101516020015173ffffffffffffffffffffffffffffffffffffffff160361035657828061035290613148565b9350505b808061036190613148565b915050610254565b508192505050919050565b6002818154811061038457600080fd5b90600052602060002090600802016000915090508060000154908060010160009054906101000a900473ffffffffffffffffffffffffffffffffffffffff16908060020180546103d3906131bf565b80601f01602080910402602001604051908101604052809291908181526020018280546103ff906131bf565b801561044c5780601f106104215761010080835404028352916020019161044c565b820191906000526020600020905b81548152906001019060200180831161042f57829003601f168201915b505050505090806003018054610461906131bf565b80601f016020809104026020016040519081016040528092919081815260200182805461048d906131bf565b80156104da5780601f106104af576101008083540402835291602001916104da565b820191906000526020600020905b8154815290600101906020018083116104bd57829003601f168201915b5050505050908060040160009054906101000a900460ff1690806006018054610502906131bf565b80601f016020809104026020016040519081016040528092919081815260200182805461052e906131bf565b801561057b5780601f106105505761010080835404028352916020019161057b565b820191906000526020600020905b81548152906001019060200180831161055e57829003601f168201915b505050505090806007018054610590906131bf565b80601f01602080910402602001604051908101604052809291908181526020018280546105bc906131bf565b80156106095780601f106105de57610100808354040283529160200191610609565b820191906000526020600020905b8154815290600101906020018083116105ec57829003601f168201915b5050505050905087565b60005b600280549050811015610886578160028281548110610638576106376130ea565b5b90600052602060002090600802016000015403610873576002600160028054905061066391906131f0565b81548110610674576106736130ea565b5b906000526020600020906008020160028281548110610696576106956130ea565b5b9060005260206000209060080201600082015481600001556001820160009054906101000a900473ffffffffffffffffffffffffffffffffffffffff168160010160006101000a81548173ffffffffffffffffffffffffffffffffffffffff021916908373ffffffffffffffffffffffffffffffffffffffff1602179055506002820181600201908161072991906133e6565b506003820181600301908161073e91906133e6565b506004820160009054906101000a900460ff168160040160006101000a81548160ff0219169083151502179055506005820181600501908054610782929190611e8a565b506006820181600601908161079791906133e6565b50600782018160070190816107ac91906133e6565b5090505060028054806107c2576107c16134ce565b5b60019003818190600052602060002090600802016000808201600090556001820160006101000a81549073ffffffffffffffffffffffffffffffffffffffff02191690556002820160006108169190611edc565b6003820160006108269190611edc565b6004820160006101000a81549060ff021916905560058201600061084a9190611f1c565b60068201600061085a9190611edc565b60078201600061086a9190611edc565b50509055610886565b808061087e90613148565b915050610616565b5050565b6060600080600160009054906101000a900473ffffffffffffffffffffffffffffffffffffffff1673ffffffffffffffffffffffffffffffffffffffff1663bcaad3856040518163ffffffff1660e01b8152600401600060405180830381865afa1580156108fc573d6000803e3d6000fd5b505050506040513d6000823e3d601f19601f820116820180604052508101906109259190613052565b905060005b8151811015610ba95760001515600160009054906101000a900473ffffffffffffffffffffffffffffffffffffffff1673ffffffffffffffffffffffffffffffffffffffff1663e4d49f90848481518110610988576109876130ea565b5b602002602001015161012001516040518263ffffffff1660e01b81526004016109b191906122a7565b602060405180830381865afa1580156109ce573d6000803e3d6000fd5b505050506040513d601f19601f820116820180604052508101906109f291906134fd565b1515148015610ae3575060008054906101000a900473ffffffffffffffffffffffffffffffffffffffff1673ffffffffffffffffffffffffffffffffffffffff1663bf40fac1866040518263ffffffff1660e01b8152600401610a55919061309b565b602060405180830381865afa158015610a72573d6000803e3d6000fd5b505050506040513d601f19601f82011682018060405250810190610a9691906130bd565b73ffffffffffffffffffffffffffffffffffffffff16828281518110610abf57610abe6130ea565b5b60200260200101516020015173ffffffffffffffffffffffffffffffffffffffff16145b8015610b33575060016003811115610afe57610afd6125d3565b5b828281518110610b1157610b106130ea565b5b602002602001015161018001516003811115610b3057610b2f6125d3565b5b14155b8015610b825750600380811115610b4d57610b4c6125d3565b5b828281518110610b6057610b5f6130ea565b5b602002602001015161018001516003811115610b7f57610b7e6125d3565b5b14155b15610b96578280610b9290613148565b9350505b8080610ba190613148565b91505061092a565b5060008267ffffffffffffffff811115610bc657610bc561211a565b5b604051908082528060200260200182016040528015610bff57816020015b610bec611f3d565b815260200190600190039081610be45790505b5090506000805b8351811015610ebe5760001515600160009054906101000a900473ffffffffffffffffffffffffffffffffffffffff1673ffffffffffffffffffffffffffffffffffffffff1663e4d49f90868481518110610c6457610c636130ea565b5b602002602001015161012001516040518263ffffffff1660e01b8152600401610c8d91906122a7565b602060405180830381865afa158015610caa573d6000803e3d6000fd5b505050506040513d601f19601f82011682018060405250810190610cce91906134fd565b1515148015610dbf575060008054906101000a900473ffffffffffffffffffffffffffffffffffffffff1673ffffffffffffffffffffffffffffffffffffffff1663bf40fac1886040518263ffffffff1660e01b8152600401610d31919061309b565b602060405180830381865afa158015610d4e573d6000803e3d6000fd5b505050506040513d601f19601f82011682018060405250810190610d7291906130bd565b73ffffffffffffffffffffffffffffffffffffffff16848281518110610d9b57610d9a6130ea565b5b60200260200101516020015173ffffffffffffffffffffffffffffffffffffffff16145b8015610e0f575060016003811115610dda57610dd96125d3565b5b848281518110610ded57610dec6130ea565b5b602002602001015161018001516003811115610e0c57610e0b6125d3565b5b14155b8015610e5e5750600380811115610e2957610e286125d3565b5b848281518110610e3c57610e3b6130ea565b5b602002602001015161018001516003811115610e5b57610e5a6125d3565b5b14155b15610eab57838181518110610e7657610e756130ea565b5b6020026020010151838381518110610e9157610e906130ea565b5b60200260200101819052508180610ea790613148565b9250505b8080610eb690613148565b915050610c06565b5081945050505050919050565b60606000805b6002805490508110156110115760008054906101000a900473ffffffffffffffffffffffffffffffffffffffff1673ffffffffffffffffffffffffffffffffffffffff1663bf40fac1856040518263ffffffff1660e01b8152600401610f37919061309b565b602060405180830381865afa158015610f54573d6000803e3d6000fd5b505050506040513d601f19601f82011682018060405250810190610f7891906130bd565b73ffffffffffffffffffffffffffffffffffffffff1660028281548110610fa257610fa16130ea565b5b906000526020600020906008020160010160009054906101000a900473ffffffffffffffffffffffffffffffffffffffff1673ffffffffffffffffffffffffffffffffffffffff1603610ffe578180610ffa90613148565b9250505b808061100990613148565b915050610ed1565b5060008167ffffffffffffffff81111561102e5761102d61211a565b5b60405190808252806020026020018201604052801561106757816020015b611054611fe7565b81526020019060019003908161104c5790505b5090506000805b60028054905081101561154b5760008054906101000a900473ffffffffffffffffffffffffffffffffffffffff1673ffffffffffffffffffffffffffffffffffffffff1663bf40fac1876040518263ffffffff1660e01b81526004016110d4919061309b565b602060405180830381865afa1580156110f1573d6000803e3d6000fd5b505050506040513d601f19601f8201168201806040525081019061111591906130bd565b73ffffffffffffffffffffffffffffffffffffffff166002828154811061113f5761113e6130ea565b5b906000526020600020906008020160010160009054906101000a900473ffffffffffffffffffffffffffffffffffffffff1673ffffffffffffffffffffffffffffffffffffffff160361153857600281815481106111a05761119f6130ea565b5b906000526020600020906008020160405180610100016040529081600082015481526020016001820160009054906101000a900473ffffffffffffffffffffffffffffffffffffffff1673ffffffffffffffffffffffffffffffffffffffff1673ffffffffffffffffffffffffffffffffffffffff16815260200160028201805461122a906131bf565b80601f0160208091040260200160405190810160405280929190818152602001828054611256906131bf565b80156112a35780601f10611278576101008083540402835291602001916112a3565b820191906000526020600020905b81548152906001019060200180831161128657829003601f168201915b505050505081526020016003820180546112bc906131bf565b80601f01602080910402602001604051908101604052809291908181526020018280546112e8906131bf565b80156113355780601f1061130a57610100808354040283529160200191611335565b820191906000526020600020905b81548152906001019060200180831161131857829003601f168201915b505050505081526020016004820160009054906101000a900460ff16151515158152602001600582018054806020026020016040519081016040528092919081815260200182805480156113de57602002820191906000526020600020905b8160009054906101000a900473ffffffffffffffffffffffffffffffffffffffff1673ffffffffffffffffffffffffffffffffffffffff1681526020019060010190808311611394575b505050505081526020016006820180546113f7906131bf565b80601f0160208091040260200160405190810160405280929190818152602001828054611423906131bf565b80156114705780601f1061144557610100808354040283529160200191611470565b820191906000526020600020905b81548152906001019060200180831161145357829003601f168201915b50505050508152602001600782018054611489906131bf565b80601f01602080910402602001604051908101604052809291908181526020018280546114b5906131bf565b80156115025780601f106114d757610100808354040283529160200191611502565b820191906000526020600020905b8154815290600101906020018083116114e557829003601f168201915b50505050508152505083838151811061151e5761151d6130ea565b5b6020026020010181905250818061153490613148565b9250505b808061154390613148565b91505061106e565b50819350505050919050565b600060405180610100016040528060035481526020013373ffffffffffffffffffffffffffffffffffffffff1681526020018c8c8080601f016020809104026020016040519081016040528093929190818152602001838380828437600081840152601f19601f8201169050808301925050505050505081526020018a8a8080601f016020809104026020016040519081016040528093929190818152602001838380828437600081840152601f19601f8201169050808301925050505050505081526020018815158152602001878780806020026020016040519081016040528093929190818152602001838360200280828437600081840152601f19601f82011690508083019250505050505050815260200185815260200184848080601f016020809104026020016040519081016040528093929190818152602001838380828437600081840152601f19601f820116905080830192505050505050508152509050600360008154809291906116cf90613148565b919050555060028190806001815401808255809150506001900390600052602060002090600802016000909190919091506000820151816000015560208201518160010160006101000a81548173ffffffffffffffffffffffffffffffffffffffff021916908373ffffffffffffffffffffffffffffffffffffffff1602179055506040820151816002019081611766919061352a565b50606082015181600301908161177c919061352a565b5060808201518160040160006101000a81548160ff02191690831515021790555060a08201518160050190805190602001906117b9929190612044565b5060c08201518160060190816117cf919061352a565b5060e08201518160070190816117e5919061352a565b5050505050505050505050505050565b6060600080600160009054906101000a900473ffffffffffffffffffffffffffffffffffffffff1673ffffffffffffffffffffffffffffffffffffffff1663bcaad3856040518163ffffffff1660e01b8152600401600060405180830381865afa158015611867573d6000803e3d6000fd5b505050506040513d6000823e3d601f19601f820116820180604052508101906118909190613052565b905060005b8151811015611b3e5760001515600160009054906101000a900473ffffffffffffffffffffffffffffffffffffffff1673ffffffffffffffffffffffffffffffffffffffff1663e4d49f908484815181106118f3576118f26130ea565b5b602002602001015161012001516040518263ffffffff1660e01b815260040161191c91906122a7565b602060405180830381865afa158015611939573d6000803e3d6000fd5b505050506040513d601f19601f8201168201806040525081019061195d91906134fd565b1515148015611a4e575060008054906101000a900473ffffffffffffffffffffffffffffffffffffffff1673ffffffffffffffffffffffffffffffffffffffff1663bf40fac1866040518263ffffffff1660e01b81526004016119c0919061309b565b602060405180830381865afa1580156119dd573d6000803e3d6000fd5b505050506040513d601f19601f82011682018060405250810190611a0191906130bd565b73ffffffffffffffffffffffffffffffffffffffff16828281518110611a2a57611a296130ea565b5b60200260200101516040015173ffffffffffffffffffffffffffffffffffffffff16145b8015611a78575042828281518110611a6957611a686130ea565b5b602002602001015160a0015111155b8015611ac8575060026003811115611a9357611a926125d3565b5b828281518110611aa657611aa56130ea565b5b602002602001015161018001516003811115611ac557611ac46125d3565b5b14155b8015611b175750600380811115611ae257611ae16125d3565b5b828281518110611af557611af46130ea565b5b602002602001015161018001516003811115611b1457611b136125d3565b5b14155b15611b2b578280611b2790613148565b9350505b8080611b3690613148565b915050611895565b5060008267ffffffffffffffff811115611b5b57611b5a61211a565b5b604051908082528060200260200182016040528015611b9457816020015b611b81611f3d565b815260200190600190039081611b795790505b5090506000805b8351811015611e7d5760001515600160009054906101000a900473ffffffffffffffffffffffffffffffffffffffff1673ffffffffffffffffffffffffffffffffffffffff1663e4d49f90868481518110611bf957611bf86130ea565b5b602002602001015161012001516040518263ffffffff1660e01b8152600401611c2291906122a7565b602060405180830381865afa158015611c3f573d6000803e3d6000fd5b505050506040513d601f19601f82011682018060405250810190611c6391906134fd565b1515148015611d54575060008054906101000a900473ffffffffffffffffffffffffffffffffffffffff1673ffffffffffffffffffffffffffffffffffffffff1663bf40fac1886040518263ffffffff1660e01b8152600401611cc6919061309b565b602060405180830381865afa158015611ce3573d6000803e3d6000fd5b505050506040513d601f19601f82011682018060405250810190611d0791906130bd565b73ffffffffffffffffffffffffffffffffffffffff16848281518110611d3057611d2f6130ea565b5b60200260200101516040015173ffffffffffffffffffffffffffffffffffffffff16145b8015611d7e575042848281518110611d6f57611d6e6130ea565b5b602002602001015160a0015111155b8015611dce575060026003811115611d9957611d986125d3565b5b848281518110611dac57611dab6130ea565b5b602002602001015161018001516003811115611dcb57611dca6125d3565b5b14155b8015611e1d5750600380811115611de857611de76125d3565b5b848281518110611dfb57611dfa6130ea565b5b602002602001015161018001516003811115611e1a57611e196125d3565b5b14155b15611e6a57838181518110611e3557611e346130ea565b5b6020026020010151838381518110611e5057611e4f6130ea565b5b60200260200101819052508180611e6690613148565b9250505b8080611e7590613148565b915050611b9b565b5081945050505050919050565b828054828255906000526020600020908101928215611ecb5760005260206000209182015b82811115611eca578254825591600101919060010190611eaf565b5b509050611ed891906120ce565b5090565b508054611ee8906131bf565b6000825580601f10611efa5750611f19565b601f016020900490600052602060002090810190611f1891906120ce565b5b50565b5080546000825590600052602060002090810190611f3a91906120ce565b50565b604051806101a0016040528060008152602001600073ffffffffffffffffffffffffffffffffffffffff168152602001600073ffffffffffffffffffffffffffffffffffffffff1681526020016060815260200160608152602001600081526020016000151581526020016000151581526020016060815260200160008152602001606081526020016060815260200160006003811115611fe157611fe06125d3565b5b81525090565b60405180610100016040528060008152602001600073ffffffffffffffffffffffffffffffffffffffff16815260200160608152602001606081526020016000151581526020016060815260200160608152602001606081525090565b8280548282559060005260206000209081019282156120bd579160200282015b828111156120bc5782518260006101000a81548173ffffffffffffffffffffffffffffffffffffffff021916908373ffffffffffffffffffffffffffffffffffffffff16021790555091602001919060010190612064565b5b5090506120ca91906120ce565b5090565b5b808211156120e75760008160009055506001016120cf565b5090565b6000604051905090565b600080fd5b600080fd5b600080fd5b600080fd5b6000601f19601f8301169050919050565b7f4e487b7100000000000000000000000000000000000000000000000000000000600052604160045260246000fd5b61215282612109565b810181811067ffffffffffffffff821117156121715761217061211a565b5b80604052505050565b60006121846120eb565b90506121908282612149565b919050565b600067ffffffffffffffff8211156121b0576121af61211a565b5b6121b982612109565b9050602081019050919050565b82818337600083830152505050565b60006121e86121e384612195565b61217a565b90508281526020810184848401111561220457612203612104565b5b61220f8482856121c6565b509392505050565b600082601f83011261222c5761222b6120ff565b5b813561223c8482602086016121d5565b91505092915050565b60006020828403121561225b5761225a6120f5565b5b600082013567ffffffffffffffff811115612279576122786120fa565b5b61228584828501612217565b91505092915050565b6000819050919050565b6122a18161228e565b82525050565b60006020820190506122bc6000830184612298565b92915050565b6122cb8161228e565b81146122d657600080fd5b50565b6000813590506122e8816122c2565b92915050565b600060208284031215612304576123036120f5565b5b6000612312848285016122d9565b91505092915050565b600073ffffffffffffffffffffffffffffffffffffffff82169050919050565b60006123468261231b565b9050919050565b6123568161233b565b82525050565b600081519050919050565b600082825260208201905092915050565b60005b8381101561239657808201518184015260208101905061237b565b60008484015250505050565b60006123ad8261235c565b6123b78185612367565b93506123c7818560208601612378565b6123d081612109565b840191505092915050565b60008115159050919050565b6123f0816123db565b82525050565b600060e08201905061240b600083018a612298565b612418602083018961234d565b818103604083015261242a81886123a2565b9050818103606083015261243e81876123a2565b905061244d60808301866123e7565b81810360a083015261245f81856123a2565b905081810360c083015261247381846123a2565b905098975050505050505050565b600081519050919050565b600082825260208201905092915050565b6000819050602082019050919050565b6124b68161228e565b82525050565b6124c58161233b565b82525050565b600082825260208201905092915050565b60006124e78261235c565b6124f181856124cb565b9350612501818560208601612378565b61250a81612109565b840191505092915050565b61251e816123db565b82525050565b600081519050919050565b600082825260208201905092915050565b6000819050602082019050919050565b600061255c83836124bc565b60208301905092915050565b6000602082019050919050565b600061258082612524565b61258a818561252f565b935061259583612540565b8060005b838110156125c65781516125ad8882612550565b97506125b883612568565b925050600181019050612599565b5085935050505092915050565b7f4e487b7100000000000000000000000000000000000000000000000000000000600052602160045260246000fd5b60048110612613576126126125d3565b5b50565b600081905061262482612602565b919050565b600061263482612616565b9050919050565b61264481612629565b82525050565b60006101a08301600083015161266360008601826124ad565b50602083015161267660208601826124bc565b50604083015161268960408601826124bc565b50606083015184820360608601526126a182826124dc565b915050608083015184820360808601526126bb82826124dc565b91505060a08301516126d060a08601826124ad565b5060c08301516126e360c0860182612515565b5060e08301516126f660e0860182612515565b506101008301518482036101008601526127108282612575565b9150506101208301516127276101208601826124ad565b5061014083015184820361014086015261274182826124dc565b91505061016083015184820361016086015261275d82826124dc565b91505061018083015161277461018086018261263b565b508091505092915050565b600061278b838361264a565b905092915050565b6000602082019050919050565b60006127ab82612481565b6127b5818561248c565b9350836020820285016127c78561249d565b8060005b8581101561280357848403895281516127e4858261277f565b94506127ef83612793565b925060208a019950506001810190506127cb565b50829750879550505050505092915050565b6000602082019050818103600083015261282f81846127a0565b905092915050565b600081519050919050565b600082825260208201905092915050565b6000819050602082019050919050565b60006101008301600083015161287c60008601826124ad565b50602083015161288f60208601826124bc565b50604083015184820360408601526128a782826124dc565b915050606083015184820360608601526128c182826124dc565b91505060808301516128d66080860182612515565b5060a083015184820360a08601526128ee8282612575565b91505060c083015184820360c086015261290882826124dc565b91505060e083015184820360e086015261292282826124dc565b9150508091505092915050565b600061293b8383612863565b905092915050565b6000602082019050919050565b600061295b82612837565b6129658185612842565b93508360208202850161297785612853565b8060005b858110156129b35784840389528151612994858261292f565b945061299f83612943565b925060208a0199505060018101905061297b565b50829750879550505050505092915050565b600060208201905081810360008301526129df8184612950565b905092915050565b600080fd5b600080fd5b60008083601f840112612a0757612a066120ff565b5b8235905067ffffffffffffffff811115612a2457612a236129e7565b5b602083019150836001820283011115612a4057612a3f6129ec565b5b9250929050565b612a50816123db565b8114612a5b57600080fd5b50565b600081359050612a6d81612a47565b92915050565b60008083601f840112612a8957612a886120ff565b5b8235905067ffffffffffffffff811115612aa657612aa56129e7565b5b602083019150836020820283011115612ac257612ac16129ec565b5b9250929050565b60008060008060008060008060008060c08b8d031215612aec57612aeb6120f5565b5b60008b013567ffffffffffffffff811115612b0a57612b096120fa565b5b612b168d828e016129f1565b9a509a505060208b013567ffffffffffffffff811115612b3957612b386120fa565b5b612b458d828e016129f1565b98509850506040612b588d828e01612a5e565b96505060608b013567ffffffffffffffff811115612b7957612b786120fa565b5b612b858d828e01612a73565b955095505060808b013567ffffffffffffffff811115612ba857612ba76120fa565b5b612bb48d828e01612217565b93505060a08b013567ffffffffffffffff811115612bd557612bd46120fa565b5b612be18d828e016129f1565b92509250509295989b9194979a5092959850565b600067ffffffffffffffff821115612c1057612c0f61211a565b5b602082029050602081019050919050565b600080fd5b600080fd5b600081519050612c3a816122c2565b92915050565b612c498161233b565b8114612c5457600080fd5b50565b600081519050612c6681612c40565b92915050565b6000612c7f612c7a84612195565b61217a565b905082815260208101848484011115612c9b57612c9a612104565b5b612ca6848285612378565b509392505050565b600082601f830112612cc357612cc26120ff565b5b8151612cd3848260208601612c6c565b91505092915050565b600081519050612ceb81612a47565b92915050565b600067ffffffffffffffff821115612d0c57612d0b61211a565b5b602082029050602081019050919050565b6000612d30612d2b84612cf1565b61217a565b90508083825260208201905060208402830185811115612d5357612d526129ec565b5b835b81811015612d7c5780612d688882612c57565b845260208401935050602081019050612d55565b5050509392505050565b600082601f830112612d9b57612d9a6120ff565b5b8151612dab848260208601612d1d565b91505092915050565b60048110612dc157600080fd5b50565b600081519050612dd381612db4565b92915050565b60006101a08284031215612df057612def612c21565b5b612dfb6101a061217a565b90506000612e0b84828501612c2b565b6000830152506020612e1f84828501612c57565b6020830152506040612e3384828501612c57565b604083015250606082015167ffffffffffffffff811115612e5757612e56612c26565b5b612e6384828501612cae565b606083015250608082015167ffffffffffffffff811115612e8757612e86612c26565b5b612e9384828501612cae565b60808301525060a0612ea784828501612c2b565b60a08301525060c0612ebb84828501612cdc565b60c08301525060e0612ecf84828501612cdc565b60e08301525061010082015167ffffffffffffffff811115612ef457612ef3612c26565b5b612f0084828501612d86565b61010083015250610120612f1684828501612c2b565b6101208301525061014082015167ffffffffffffffff811115612f3c57612f3b612c26565b5b612f4884828501612cae565b6101408301525061016082015167ffffffffffffffff811115612f6e57612f6d612c26565b5b612f7a84828501612cae565b61016083015250610180612f9084828501612dc4565b6101808301525092915050565b6000612fb0612fab84612bf5565b61217a565b90508083825260208201905060208402830185811115612fd357612fd26129ec565b5b835b8181101561301a57805167ffffffffffffffff811115612ff857612ff76120ff565b5b8086016130058982612dd9565b85526020850194505050602081019050612fd5565b5050509392505050565b600082601f830112613039576130386120ff565b5b8151613049848260208601612f9d565b91505092915050565b600060208284031215613068576130676120f5565b5b600082015167ffffffffffffffff811115613086576130856120fa565b5b61309284828501613024565b91505092915050565b600060208201905081810360008301526130b581846123a2565b905092915050565b6000602082840312156130d3576130d26120f5565b5b60006130e184828501612c57565b91505092915050565b7f4e487b7100000000000000000000000000000000000000000000000000000000600052603260045260246000fd5b7f4e487b7100000000000000000000000000000000000000000000000000000000600052601160045260246000fd5b60006131538261228e565b91507fffffffffffffffffffffffffffffffffffffffffffffffffffffffffffffffff820361318557613184613119565b5b600182019050919050565b7f4e487b7100000000000000000000000000000000000000000000000000000000600052602260045260246000fd5b600060028204905060018216806131d757607f821691505b6020821081036131ea576131e9613190565b5b50919050565b60006131fb8261228e565b91506132068361228e565b925082820390508181111561321e5761321d613119565b5b92915050565b600081549050613233816131bf565b9050919050565b60008190508160005260206000209050919050565b60006020601f8301049050919050565b600082821b905092915050565b60006008830261329c7fffffffffffffffffffffffffffffffffffffffffffffffffffffffffffffffff8261325f565b6132a6868361325f565b95508019841693508086168417925050509392505050565b6000819050919050565b60006132e36132de6132d98461228e565b6132be565b61228e565b9050919050565b6000819050919050565b6132fd836132c8565b613311613309826132ea565b84845461326c565b825550505050565b600090565b613326613319565b6133318184846132f4565b505050565b5b818110156133555761334a60008261331e565b600181019050613337565b5050565b601f82111561339a5761336b8161323a565b6133748461324f565b81016020851015613383578190505b61339761338f8561324f565b830182613336565b50505b505050565b600082821c905092915050565b60006133bd6000198460080261339f565b1980831691505092915050565b60006133d683836133ac565b9150826002028217905092915050565b8181036133f45750506134cc565b6133fd82613224565b67ffffffffffffffff8111156134165761341561211a565b5b61342082546131bf565b61342b828285613359565b6000601f83116001811461345a5760008415613448578287015490505b61345285826133ca565b8655506134c5565b601f1984166134688761323a565b96506134738661323a565b60005b8281101561349b57848901548255600182019150600185019450602081019050613476565b868310156134b857848901546134b4601f8916826133ac565b8355505b6001600288020188555050505b5050505050505b565b7f4e487b7100000000000000000000000000000000000000000000000000000000600052603160045260246000fd5b600060208284031215613513576135126120f5565b5b600061352184828501612cdc565b91505092915050565b6135338261235c565b67ffffffffffffffff81111561354c5761354b61211a565b5b61355682546131bf565b613561828285613359565b600060209050601f8311600181146135945760008415613582578287015190505b61358c85826133ca565b8655506135f4565b601f1984166135a28661323a565b60005b828110156135ca578489015182556001820191506020850194506020810190506135a5565b868310156135e757848901516135e3601f8916826133ac565b8355505b6001600288020188555050505b50505050505056fea26469706673582212203d2700e7f27a178f965ed37f7a7431082a7ac8df9880474948d8e420b9d55d8c64736f6c63430008120033",
  "linkReferences": {},
  "deployedLinkReferences": {}
}