{
  "_format": "hh-sol-artifact-1",
  "contractName": "Structures",
  "sourceName": "contracts/Structures.sol",
  "abi": [
    {
      "inputs": [],
      "stateMutability": "nonpayable",
      "type": "constructor"
    },
    {
      "anonymous": false,
      "inputs": [
        {
          "indexed": false,
          "internalType": "uint256",
          "name": "message",
          "type": "uint256"
        }
      ],
      "name": "LogString",
      "type": "event"
    },
    {
      "inputs": [
        {
          "internalType": "uint256",
          "name": "",
          "type": "uint256"
        }
      ],
      "name": "IDs",
      "outputs": [
        {
          "internalType": "bytes32",
          "name": "ID",
          "type": "bytes32"
        },
        {
          "internalType": "string",
          "name": "email",
          "type": "string"
        }
      ],
      "stateMutability": "view",
      "type": "function"
    },
    {
      "inputs": [
        {
          "internalType": "address",
          "name": "",
          "type": "address"
        }
      ],
      "name": "Keys",
      "outputs": [
        {
          "internalType": "bytes32",
          "name": "seed",
          "type": "bytes32"
        },
        {
          "internalType": "bytes32",
          "name": "password",
          "type": "bytes32"
        },
        {
          "internalType": "bytes",
          "name": "pubKey",
          "type": "bytes"
        }
      ],
      "stateMutability": "view",
      "type": "function"
    },
    {
      "inputs": [
        {
          "internalType": "address",
          "name": "wallet",
          "type": "address"
        }
      ],
      "name": "activate",
      "outputs": [],
      "stateMutability": "nonpayable",
      "type": "function"
    },
    {
      "inputs": [
        {
          "internalType": "address",
          "name": "userAddress",
          "type": "address"
        }
      ],
      "name": "addAdmin",
      "outputs": [],
      "stateMutability": "nonpayable",
      "type": "function"
    },
    {
      "inputs": [],
      "name": "admin",
      "outputs": [
        {
          "internalType": "address",
          "name": "",
          "type": "address"
        }
      ],
      "stateMutability": "view",
      "type": "function"
    },
    {
      "inputs": [
        {
          "internalType": "address",
          "name": "walletAddress",
          "type": "address"
        },
        {
          "internalType": "bytes32",
          "name": "password",
          "type": "bytes32"
        }
      ],
      "name": "changePasswordUser",
      "outputs": [],
      "stateMutability": "nonpayable",
      "type": "function"
    },
    {
      "inputs": [
        {
          "internalType": "address",
          "name": "user",
          "type": "address"
        }
      ],
      "name": "checkUserExists",
      "outputs": [
        {
          "internalType": "bool",
          "name": "",
          "type": "bool"
        }
      ],
      "stateMutability": "view",
      "type": "function"
    },
    {
      "inputs": [
        {
          "internalType": "bool",
          "name": "enabled",
          "type": "bool"
        }
      ],
      "name": "countUsers",
      "outputs": [
        {
          "internalType": "uint256",
          "name": "",
          "type": "uint256"
        }
      ],
      "stateMutability": "view",
      "type": "function"
    },
    {
      "inputs": [
        {
          "internalType": "uint256",
          "name": "Id",
          "type": "uint256"
        },
        {
          "internalType": "string",
          "name": "name",
          "type": "string"
        },
        {
          "internalType": "string",
          "name": "email",
          "type": "string"
        },
        {
          "internalType": "address",
          "name": "walletAddress",
          "type": "address"
        },
        {
          "internalType": "bytes32",
          "name": "seed",
          "type": "bytes32"
        },
        {
          "internalType": "bytes32",
          "name": "password",
          "type": "bytes32"
        },
        {
          "internalType": "bytes",
          "name": "pubKey",
          "type": "bytes"
        }
      ],
      "name": "createUser",
      "outputs": [],
      "stateMutability": "nonpayable",
      "type": "function"
    },
    {
      "inputs": [
        {
          "internalType": "string",
          "name": "email",
          "type": "string"
        },
        {
          "internalType": "bytes32",
          "name": "Id",
          "type": "bytes32"
        }
      ],
      "name": "createUserId",
      "outputs": [],
      "stateMutability": "nonpayable",
      "type": "function"
    },
    {
      "inputs": [
        {
          "internalType": "address",
          "name": "wallet",
          "type": "address"
        }
      ],
      "name": "desactivate",
      "outputs": [],
      "stateMutability": "nonpayable",
      "type": "function"
    },
    {
      "inputs": [
        {
          "internalType": "string",
          "name": "email",
          "type": "string"
        }
      ],
      "name": "getAddress",
      "outputs": [
        {
          "internalType": "address",
          "name": "",
          "type": "address"
        }
      ],
      "stateMutability": "view",
      "type": "function"
    },
    {
      "inputs": [],
      "name": "getAllDesactivatedUsers",
      "outputs": [
        {
          "components": [
            {
              "internalType": "string",
              "name": "name",
              "type": "string"
            },
            {
              "internalType": "string",
              "name": "email",
              "type": "string"
            },
            {
              "internalType": "bool",
              "name": "exists",
              "type": "bool"
            },
            {
              "internalType": "address",
              "name": "walletAddress",
              "type": "address"
            },
            {
              "internalType": "bool",
              "name": "enabled",
              "type": "bool"
            }
          ],
          "internalType": "struct Structures.User[]",
          "name": "",
          "type": "tuple[]"
        }
      ],
      "stateMutability": "view",
      "type": "function"
    },
    {
      "inputs": [],
      "name": "getAllUsers",
      "outputs": [
        {
          "components": [
            {
              "internalType": "string",
              "name": "name",
              "type": "string"
            },
            {
              "internalType": "string",
              "name": "email",
              "type": "string"
            },
            {
              "internalType": "bool",
              "name": "exists",
              "type": "bool"
            },
            {
              "internalType": "address",
              "name": "walletAddress",
              "type": "address"
            },
            {
              "internalType": "bool",
              "name": "enabled",
              "type": "bool"
            }
          ],
          "internalType": "struct Structures.User[]",
          "name": "",
          "type": "tuple[]"
        }
      ],
      "stateMutability": "view",
      "type": "function"
    },
    {
      "inputs": [],
      "name": "getAllUsersIDs",
      "outputs": [
        {
          "components": [
            {
              "internalType": "bytes32",
              "name": "ID",
              "type": "bytes32"
            },
            {
              "internalType": "string",
              "name": "email",
              "type": "string"
            }
          ],
          "internalType": "struct Structures.ID[]",
          "name": "",
          "type": "tuple[]"
        }
      ],
      "stateMutability": "view",
      "type": "function"
    },
    {
      "inputs": [],
      "name": "getAllUsersIDsBackup",
      "outputs": [
        {
          "components": [
            {
              "internalType": "bytes32",
              "name": "ID",
              "type": "bytes32"
            },
            {
              "internalType": "string",
              "name": "email",
              "type": "string"
            }
          ],
          "internalType": "struct Structures.ID[]",
          "name": "",
          "type": "tuple[]"
        }
      ],
      "stateMutability": "view",
      "type": "function"
    },
    {
      "inputs": [
        {
          "internalType": "address",
          "name": "adresse",
          "type": "address"
        }
      ],
      "name": "getEmail",
      "outputs": [
        {
          "internalType": "string",
          "name": "",
          "type": "string"
        }
      ],
      "stateMutability": "view",
      "type": "function"
    },
    {
      "inputs": [
        {
          "internalType": "address",
          "name": "wallet",
          "type": "address"
        }
      ],
      "name": "getEmailByAddress",
      "outputs": [
        {
          "internalType": "string",
          "name": "",
          "type": "string"
        }
      ],
      "stateMutability": "view",
      "type": "function"
    },
    {
      "inputs": [
        {
          "internalType": "address",
          "name": "adresse",
          "type": "address"
        }
      ],
      "name": "getName",
      "outputs": [
        {
          "internalType": "string",
          "name": "",
          "type": "string"
        }
      ],
      "stateMutability": "view",
      "type": "function"
    },
    {
      "inputs": [
        {
          "internalType": "address",
          "name": "receiver",
          "type": "address"
        }
      ],
      "name": "getRecieverPubKey",
      "outputs": [
        {
          "internalType": "bytes",
          "name": "",
          "type": "bytes"
        }
      ],
      "stateMutability": "view",
      "type": "function"
    },
    {
      "inputs": [
        {
          "internalType": "address",
          "name": "user",
          "type": "address"
        }
      ],
      "name": "isAdmin",
      "outputs": [
        {
          "internalType": "bool",
          "name": "",
          "type": "bool"
        }
      ],
      "stateMutability": "view",
      "type": "function"
    },
    {
      "inputs": [
        {
          "internalType": "uint256",
          "name": "",
          "type": "uint256"
        }
      ],
      "name": "userAddresses",
      "outputs": [
        {
          "internalType": "address",
          "name": "",
          "type": "address"
        }
      ],
      "stateMutability": "view",
      "type": "function"
    },
    {
      "inputs": [
        {
          "internalType": "uint256",
          "name": "",
          "type": "uint256"
        }
      ],
      "name": "userEmails",
      "outputs": [
        {
          "internalType": "string",
          "name": "",
          "type": "string"
        }
      ],
      "stateMutability": "view",
      "type": "function"
    },
    {
      "inputs": [
        {
          "internalType": "address",
          "name": "",
          "type": "address"
        }
      ],
      "name": "users",
      "outputs": [
        {
          "internalType": "string",
          "name": "name",
          "type": "string"
        },
        {
          "internalType": "string",
          "name": "email",
          "type": "string"
        },
        {
          "internalType": "bool",
          "name": "exists",
          "type": "bool"
        },
        {
          "internalType": "address",
          "name": "walletAddress",
          "type": "address"
        },
        {
          "internalType": "bool",
          "name": "enabled",
          "type": "bool"
        }
      ],
      "stateMutability": "view",
      "type": "function"
    },
    {
      "inputs": [
        {
          "internalType": "address",
          "name": "sender",
          "type": "address"
        },
        {
          "internalType": "bytes32",
          "name": "password",
          "type": "bytes32"
        }
      ],
      "name": "verifyPassword",
      "outputs": [
        {
          "internalType": "bool",
          "name": "",
          "type": "bool"
        }
      ],
      "stateMutability": "view",
      "type": "function"
    },
    {
      "inputs": [
        {
          "internalType": "address",
          "name": "sender",
          "type": "address"
        },
        {
          "internalType": "bytes32",
          "name": "seed",
          "type": "bytes32"
        }
      ],
      "name": "verifySeed",
      "outputs": [
        {
          "internalType": "bool",
          "name": "",
          "type": "bool"
        }
      ],
      "stateMutability": "view",
      "type": "function"
    },
    {
      "inputs": [
        {
          "internalType": "uint256",
          "name": "id",
          "type": "uint256"
        },
        {
          "internalType": "string",
          "name": "email",
          "type": "string"
        }
      ],
      "name": "verifyUser",
      "outputs": [
        {
          "internalType": "bool",
          "name": "",
          "type": "bool"
        }
      ],
      "stateMutability": "view",
      "type": "function"
    }
  ],
  "bytecode": "0x608060405234801561001057600080fd5b50737b60ed2a82267ab814256d3ab977ae5434d01d8b600560006101000a81548173ffffffffffffffffffffffffffffffffffffffff021916908373ffffffffffffffffffffffffffffffffffffffff1602179055506140ac806100756000396000f3fe608060405234801561001057600080fd5b50600436106101a95760003560e01c8063579fb390116100f9578063d6d4736811610097578063f0dd9c0611610071578063f0dd9c0614610557578063f77cbff014610587578063f851a440146105a5578063fb73bc64146105c3576101a9565b8063d6d47368146104ea578063e2842d7914610508578063effc99cd14610526576101a9565b806370480275116100d3578063704802751461044c5780638496668c14610468578063a87430ba14610486578063bf40fac1146104ba576101a9565b8063579fb390146103d057806359badcbf146103ec5780635fd4b08a1461041c576101a9565b806324d7806c1161016657806339a4ae6c1161014057806339a4ae6c146103245780633e07238a146103405780634fa7353c14610370578063502c9bd5146103a0576101a9565b806324d7806c146102a85780632c108ed6146102d857806330dbc8ec146102f4576101a9565b80631112bdf2146101ae578063133f50f5146101de57806313f239271461020e5780631c5a9d9c1461023e5780631e8fbd9b1461025a5780631f4b37ff14610276575b600080fd5b6101c860048036038101906101c39190612aee565b6105f3565b6040516101d59190612b65565b60405180910390f35b6101f860048036038101906101f39190612bde565b6107c3565b6040516102059190612b65565b60405180910390f35b61022860048036038101906102239190612c41565b61081d565b6040516102359190612b65565b60405180910390f35b61025860048036038101906102539190612bde565b6108ad565b005b610274600480360381019061026f9190612c81565b610a59565b005b610290600480360381019061028b9190612bde565b610c9e565b60405161029f93929190612d6b565b60405180910390f35b6102c260048036038101906102bd9190612bde565b610d50565b6040516102cf9190612b65565b60405180910390f35b6102f260048036038101906102ed9190612bde565b610da6565b005b61030e60048036038101906103099190612c41565b610f52565b60405161031b9190612b65565b60405180910390f35b61033e60048036038101906103399190612e4a565b610fe2565b005b61035a60048036038101906103559190612bde565b6114e4565b6040516103679190612f40565b60405180910390f35b61038a60048036038101906103859190612bde565b6115be565b6040516103979190612fb7565b60405180910390f35b6103ba60048036038101906103b59190612fd9565b6116e1565b6040516103c79190613015565b60405180910390f35b6103ea60048036038101906103e59190612c41565b611720565b005b6104066004803603810190610401919061305c565b6117da565b6040516104139190613098565b60405180910390f35b61043660048036038101906104319190612bde565b6118b5565b6040516104439190612fb7565b60405180910390f35b61046660048036038101906104619190612bde565b6119d8565b005b610470611ac3565b60405161047d919061325a565b60405180910390f35b6104a0600480360381019061049b9190612bde565b611e57565b6040516104b195949392919061327c565b60405180910390f35b6104d460048036038101906104cf91906132dd565b611fd7565b6040516104e19190613015565b60405180910390f35b6104f261201f565b6040516104ff9190613434565b60405180910390f35b61051061218f565b60405161051d919061325a565b60405180910390f35b610540600480360381019061053b9190612fd9565b612523565b60405161054e929190613456565b60405180910390f35b610571600480360381019061056c9190612fd9565b6125df565b60405161057e9190612fb7565b60405180910390f35b61058f61268b565b60405161059c9190613434565b60405180910390f35b6105ad612786565b6040516105ba9190613015565b60405180910390f35b6105dd60048036038101906105d89190612bde565b6127ac565b6040516105ea9190612fb7565b60405180910390f35b6000806002846040516020016106099190613098565b60405160208183030381529060405260405161062591906134c2565b602060405180830381855afa158015610642573d6000803e3d6000fd5b5050506040513d601f19601f8201168201806040525081019061066591906134ee565b905060005b60008054905081101561078157816000828154811061068c5761068b61351b565b5b90600052602060002090600202016000015414801561075e575061075d600082815481106106bd576106bc61351b565b5b906000526020600020906002020160010180546106d990613579565b80601f016020809104026020016040519081016040528092919081815260200182805461070590613579565b80156107525780601f1061072757610100808354040283529160200191610752565b820191906000526020600020905b81548152906001019060200180831161073557829003601f168201915b505050505085612880565b5b1561076e576001925050506107bd565b8080610779906135d9565b91505061066a565b506040517f08c379a00000000000000000000000000000000000000000000000000000000081526004016107b490613693565b60405180910390fd5b92915050565b600080600260008473ffffffffffffffffffffffffffffffffffffffff1673ffffffffffffffffffffffffffffffffffffffff168152602001908152602001600020600101805461081390613579565b9050119050919050565b600081600160008573ffffffffffffffffffffffffffffffffffffffff1673ffffffffffffffffffffffffffffffffffffffff16815260200190815260200160002060000154146108a3576040517f08c379a000000000000000000000000000000000000000000000000000000000815260040161089a906136ff565b60405180910390fd5b6001905092915050565b600560009054906101000a900473ffffffffffffffffffffffffffffffffffffffff1673ffffffffffffffffffffffffffffffffffffffff163373ffffffffffffffffffffffffffffffffffffffff161461093d576040517f08c379a000000000000000000000000000000000000000000000000000000000815260040161093490613791565b60405180910390fd5b600073ffffffffffffffffffffffffffffffffffffffff168173ffffffffffffffffffffffffffffffffffffffff16036109ac576040517f08c379a00000000000000000000000000000000000000000000000000000000081526004016109a390613823565b60405180910390fd5b600115156109b9826107c3565b1515146109fb576040517f08c379a00000000000000000000000000000000000000000000000000000000081526004016109f2906138b5565b60405180910390fd5b6001600260008373ffffffffffffffffffffffffffffffffffffffff1673ffffffffffffffffffffffffffffffffffffffff16815260200190815260200160002060020160156101000a81548160ff02191690831515021790555050565b600560009054906101000a900473ffffffffffffffffffffffffffffffffffffffff1673ffffffffffffffffffffffffffffffffffffffff163373ffffffffffffffffffffffffffffffffffffffff1614610ae9576040517f08c379a0000000000000000000000000000000000000000000000000000000008152600401610ae090613791565b60405180910390fd5b60005b600480549050811015610bfc57610ba960048281548110610b1057610b0f61351b565b5b906000526020600020018054610b2590613579565b80601f0160208091040260200160405190810160405280929190818152602001828054610b5190613579565b8015610b9e5780601f10610b7357610100808354040283529160200191610b9e565b820191906000526020600020905b815481529060010190602001808311610b8157829003601f168201915b505050505084612880565b15610be9576040517f08c379a0000000000000000000000000000000000000000000000000000000008152600401610be090613921565b60405180910390fd5b8080610bf4906135d9565b915050610aec565b50600060405180604001604052808381526020018481525090506000819080600181540180825580915050600190039060005260206000209060020201600090919091909150600082015181600001556020820151816001019081610c619190613aed565b505050600483908060018154018082558091505060019003906000526020600020016000909190919091509081610c989190613aed565b50505050565b6001602052806000526040600020600091509050806000015490806001015490806002018054610ccd90613579565b80601f0160208091040260200160405190810160405280929190818152602001828054610cf990613579565b8015610d465780601f10610d1b57610100808354040283529160200191610d46565b820191906000526020600020905b815481529060010190602001808311610d2957829003601f168201915b5050505050905083565b6000600660008373ffffffffffffffffffffffffffffffffffffffff1673ffffffffffffffffffffffffffffffffffffffff16815260200190815260200160002060009054906101000a900460ff169050919050565b600560009054906101000a900473ffffffffffffffffffffffffffffffffffffffff1673ffffffffffffffffffffffffffffffffffffffff163373ffffffffffffffffffffffffffffffffffffffff1614610e36576040517f08c379a0000000000000000000000000000000000000000000000000000000008152600401610e2d90613791565b60405180910390fd5b600073ffffffffffffffffffffffffffffffffffffffff168173ffffffffffffffffffffffffffffffffffffffff1603610ea5576040517f08c379a0000000000000000000000000000000000000000000000000000000008152600401610e9c90613823565b60405180910390fd5b60011515610eb2826107c3565b151514610ef4576040517f08c379a0000000000000000000000000000000000000000000000000000000008152600401610eeb906138b5565b60405180910390fd5b6000600260008373ffffffffffffffffffffffffffffffffffffffff1673ffffffffffffffffffffffffffffffffffffffff16815260200190815260200160002060020160156101000a81548160ff02191690831515021790555050565b600081600160008573ffffffffffffffffffffffffffffffffffffffff1673ffffffffffffffffffffffffffffffffffffffff1681526020019081526020016000206001015414610fd8576040517f08c379a0000000000000000000000000000000000000000000000000000000008152600401610fcf90613c0b565b60405180910390fd5b6001905092915050565b6000865111611026576040517f08c379a000000000000000000000000000000000000000000000000000000000815260040161101d90613c77565b60405180910390fd5b60006040518060a001604052808881526020018781526020016001151581526020018673ffffffffffffffffffffffffffffffffffffffff1681526020016001151581525090506000604051806060016040528086815260200185815260200184815250905081600260008873ffffffffffffffffffffffffffffffffffffffff1673ffffffffffffffffffffffffffffffffffffffff16815260200190815260200160002060008201518160000190816110e19190613aed565b5060208201518160010190816110f79190613aed565b5060408201518160020160006101000a81548160ff02191690831515021790555060608201518160020160016101000a81548173ffffffffffffffffffffffffffffffffffffffff021916908373ffffffffffffffffffffffffffffffffffffffff16021790555060808201518160020160156101000a81548160ff0219169083151502179055509050506003869080600181540180825580915050600190039060005260206000200160009091909190916101000a81548173ffffffffffffffffffffffffffffffffffffffff021916908373ffffffffffffffffffffffffffffffffffffffff160217905550856007896040516111f69190613cd3565b908152602001604051809103902060006101000a81548173ffffffffffffffffffffffffffffffffffffffff021916908373ffffffffffffffffffffffffffffffffffffffff160217905550856008886040516112539190613cd3565b908152602001604051809103902060006101000a81548173ffffffffffffffffffffffffffffffffffffffff021916908373ffffffffffffffffffffffffffffffffffffffff16021790555080600160008873ffffffffffffffffffffffffffffffffffffffff1673ffffffffffffffffffffffffffffffffffffffff168152602001908152602001600020600082015181600001556020820151816001015560408201518160020190816113089190613d45565b50905050600060028a6040516020016113219190613098565b60405160208183030381529060405260405161133d91906134c2565b602060405180830381855afa15801561135a573d6000803e3d6000fd5b5050506040513d601f19601f8201168201806040525081019061137d91906134ee565b905060005b60008054905081101561149f5781600082815481106113a4576113a361351b565b5b9060005260206000209060020201600001540361148c57600060016000805490506113cf9190613e17565b905080821461143f57600081815481106113ec576113eb61351b565b5b90600052602060002090600202016000838154811061140e5761140d61351b565b5b9060005260206000209060020201600082015481600001556001820181600101908161143a9190613e61565b509050505b600080548061145157611450613f49565b5b600190038181906000526020600020906002020160008082016000905560018201600061147e919061289b565b5050905550505050506114db565b8080611497906135d9565b915050611382565b506040517f08c379a00000000000000000000000000000000000000000000000000000000081526004016114d290613fc4565b60405180910390fd5b50505050505050565b60606000600160008473ffffffffffffffffffffffffffffffffffffffff1673ffffffffffffffffffffffffffffffffffffffff168152602001908152602001600020600201805461153590613579565b80601f016020809104026020016040519081016040528092919081815260200182805461156190613579565b80156115ae5780601f10611583576101008083540402835291602001916115ae565b820191906000526020600020905b81548152906001019060200180831161159157829003601f168201915b5050505050905080915050919050565b6060600115156115cd836107c3565b15151461160f576040517f08c379a000000000000000000000000000000000000000000000000000000000815260040161160690614056565b60405180910390fd5b600260008373ffffffffffffffffffffffffffffffffffffffff1673ffffffffffffffffffffffffffffffffffffffff168152602001908152602001600020600101805461165c90613579565b80601f016020809104026020016040519081016040528092919081815260200182805461168890613579565b80156116d55780601f106116aa576101008083540402835291602001916116d5565b820191906000526020600020905b8154815290600101906020018083116116b857829003601f168201915b50505050509050919050565b600381815481106116f157600080fd5b906000526020600020016000915054906101000a900473ffffffffffffffffffffffffffffffffffffffff1681565b600073ffffffffffffffffffffffffffffffffffffffff168273ffffffffffffffffffffffffffffffffffffffff160361178f576040517f08c379a000000000000000000000000000000000000000000000000000000000815260040161178690613823565b60405180910390fd5b80600160008473ffffffffffffffffffffffffffffffffffffffff1673ffffffffffffffffffffffffffffffffffffffff168152602001908152602001600020600101819055505050565b6000806000905060005b6003805490508110156118ab57831515600260006003848154811061180c5761180b61351b565b5b9060005260206000200160009054906101000a900473ffffffffffffffffffffffffffffffffffffffff1673ffffffffffffffffffffffffffffffffffffffff1673ffffffffffffffffffffffffffffffffffffffff16815260200190815260200160002060020160159054906101000a900460ff16151503611898578180611894906135d9565b9250505b80806118a3906135d9565b9150506117e4565b5080915050919050565b6060600115156118c4836107c3565b151514611906576040517f08c379a00000000000000000000000000000000000000000000000000000000081526004016118fd90614056565b60405180910390fd5b600260008373ffffffffffffffffffffffffffffffffffffffff1673ffffffffffffffffffffffffffffffffffffffff168152602001908152602001600020600001805461195390613579565b80601f016020809104026020016040519081016040528092919081815260200182805461197f90613579565b80156119cc5780601f106119a1576101008083540402835291602001916119cc565b820191906000526020600020905b8154815290600101906020018083116119af57829003601f168201915b50505050509050919050565b600560009054906101000a900473ffffffffffffffffffffffffffffffffffffffff1673ffffffffffffffffffffffffffffffffffffffff163373ffffffffffffffffffffffffffffffffffffffff1614611a68576040517f08c379a0000000000000000000000000000000000000000000000000000000008152600401611a5f90613791565b60405180910390fd5b6001600660008373ffffffffffffffffffffffffffffffffffffffff1673ffffffffffffffffffffffffffffffffffffffff16815260200190815260200160002060006101000a81548160ff02191690831515021790555050565b60606000611ad160006117da565b905060008167ffffffffffffffff811115611aef57611aee6129c3565b5b604051908082528060200260200182016040528015611b2857816020015b611b156128db565b815260200190600190039081611b0d5790505b5090506000805b600380549050811015611e4d57600015156002600060038481548110611b5857611b5761351b565b5b9060005260206000200160009054906101000a900473ffffffffffffffffffffffffffffffffffffffff1673ffffffffffffffffffffffffffffffffffffffff1673ffffffffffffffffffffffffffffffffffffffff16815260200190815260200160002060020160159054906101000a900460ff16151503611e3a576002600060038381548110611bed57611bec61351b565b5b9060005260206000200160009054906101000a900473ffffffffffffffffffffffffffffffffffffffff1673ffffffffffffffffffffffffffffffffffffffff1673ffffffffffffffffffffffffffffffffffffffff1681526020019081526020016000206040518060a0016040529081600082018054611c6d90613579565b80601f0160208091040260200160405190810160405280929190818152602001828054611c9990613579565b8015611ce65780601f10611cbb57610100808354040283529160200191611ce6565b820191906000526020600020905b815481529060010190602001808311611cc957829003601f168201915b50505050508152602001600182018054611cff90613579565b80601f0160208091040260200160405190810160405280929190818152602001828054611d2b90613579565b8015611d785780601f10611d4d57610100808354040283529160200191611d78565b820191906000526020600020905b815481529060010190602001808311611d5b57829003601f168201915b505050505081526020016002820160009054906101000a900460ff161515151581526020016002820160019054906101000a900473ffffffffffffffffffffffffffffffffffffffff1673ffffffffffffffffffffffffffffffffffffffff1673ffffffffffffffffffffffffffffffffffffffff1681526020016002820160159054906101000a900460ff161515151581525050838381518110611e2057611e1f61351b565b5b60200260200101819052508180611e36906135d9565b9250505b8080611e45906135d9565b915050611b2f565b5081935050505090565b6002602052806000526040600020600091509050806000018054611e7a90613579565b80601f0160208091040260200160405190810160405280929190818152602001828054611ea690613579565b8015611ef35780601f10611ec857610100808354040283529160200191611ef3565b820191906000526020600020905b815481529060010190602001808311611ed657829003601f168201915b505050505090806001018054611f0890613579565b80601f0160208091040260200160405190810160405280929190818152602001828054611f3490613579565b8015611f815780601f10611f5657610100808354040283529160200191611f81565b820191906000526020600020905b815481529060010190602001808311611f6457829003601f168201915b5050505050908060020160009054906101000a900460ff16908060020160019054906101000a900473ffffffffffffffffffffffffffffffffffffffff16908060020160159054906101000a900460ff16905085565b6000600882604051611fe99190613cd3565b908152602001604051809103902060009054906101000a900473ffffffffffffffffffffffffffffffffffffffff169050919050565b60606000808054905067ffffffffffffffff811115612041576120406129c3565b5b60405190808252806020026020018201604052801561207a57816020015b612067612924565b81526020019060019003908161205f5790505b50905060005b60008054905081101561218757600081815481106120a1576120a061351b565b5b9060005260206000209060020201604051806040016040529081600082015481526020016001820180546120d490613579565b80601f016020809104026020016040519081016040528092919081815260200182805461210090613579565b801561214d5780601f106121225761010080835404028352916020019161214d565b820191906000526020600020905b81548152906001019060200180831161213057829003601f168201915b5050505050815250508282815181106121695761216861351b565b5b6020026020010181905250808061217f906135d9565b915050612080565b508091505090565b6060600061219d60016117da565b905060008167ffffffffffffffff8111156121bb576121ba6129c3565b5b6040519080825280602002602001820160405280156121f457816020015b6121e16128db565b8152602001906001900390816121d95790505b5090506000805b600380549050811015612519576001151560026000600384815481106122245761222361351b565b5b9060005260206000200160009054906101000a900473ffffffffffffffffffffffffffffffffffffffff1673ffffffffffffffffffffffffffffffffffffffff1673ffffffffffffffffffffffffffffffffffffffff16815260200190815260200160002060020160159054906101000a900460ff161515036125065760026000600383815481106122b9576122b861351b565b5b9060005260206000200160009054906101000a900473ffffffffffffffffffffffffffffffffffffffff1673ffffffffffffffffffffffffffffffffffffffff1673ffffffffffffffffffffffffffffffffffffffff1681526020019081526020016000206040518060a001604052908160008201805461233990613579565b80601f016020809104026020016040519081016040528092919081815260200182805461236590613579565b80156123b25780601f10612387576101008083540402835291602001916123b2565b820191906000526020600020905b81548152906001019060200180831161239557829003601f168201915b505050505081526020016001820180546123cb90613579565b80601f01602080910402602001604051908101604052809291908181526020018280546123f790613579565b80156124445780601f1061241957610100808354040283529160200191612444565b820191906000526020600020905b81548152906001019060200180831161242757829003601f168201915b505050505081526020016002820160009054906101000a900460ff161515151581526020016002820160019054906101000a900473ffffffffffffffffffffffffffffffffffffffff1673ffffffffffffffffffffffffffffffffffffffff1673ffffffffffffffffffffffffffffffffffffffff1681526020016002820160159054906101000a900460ff1615151515815250508383815181106124ec576124eb61351b565b5b60200260200101819052508180612502906135d9565b9250505b8080612511906135d9565b9150506121fb565b5081935050505090565b6000818154811061253357600080fd5b906000526020600020906002020160009150905080600001549080600101805461255c90613579565b80601f016020809104026020016040519081016040528092919081815260200182805461258890613579565b80156125d55780601f106125aa576101008083540402835291602001916125d5565b820191906000526020600020905b8154815290600101906020018083116125b857829003601f168201915b5050505050905082565b600481815481106125ef57600080fd5b90600052602060002001600091509050805461260a90613579565b80601f016020809104026020016040519081016040528092919081815260200182805461263690613579565b80156126835780601f1061265857610100808354040283529160200191612683565b820191906000526020600020905b81548152906001019060200180831161266657829003601f168201915b505050505081565b60606000805480602002602001604051908101604052809291908181526020016000905b8282101561277d5783829060005260206000209060020201604051806040016040529081600082015481526020016001820180546126ec90613579565b80601f016020809104026020016040519081016040528092919081815260200182805461271890613579565b80156127655780601f1061273a57610100808354040283529160200191612765565b820191906000526020600020905b81548152906001019060200180831161274857829003601f168201915b505050505081525050815260200190600101906126af565b50505050905090565b600560009054906101000a900473ffffffffffffffffffffffffffffffffffffffff1681565b6060600260008373ffffffffffffffffffffffffffffffffffffffff1673ffffffffffffffffffffffffffffffffffffffff16815260200190815260200160002060010180546127fb90613579565b80601f016020809104026020016040519081016040528092919081815260200182805461282790613579565b80156128745780601f1061284957610100808354040283529160200191612874565b820191906000526020600020905b81548152906001019060200180831161285757829003601f168201915b50505050509050919050565b60008180519060200120838051906020012014905092915050565b5080546128a790613579565b6000825580601f106128b957506128d8565b601f0160209004906000526020600020908101906128d79190612941565b5b50565b6040518060a001604052806060815260200160608152602001600015158152602001600073ffffffffffffffffffffffffffffffffffffffff1681526020016000151581525090565b604051806040016040528060008019168152602001606081525090565b5b8082111561295a576000816000905550600101612942565b5090565b6000604051905090565b600080fd5b600080fd5b6000819050919050565b61298581612972565b811461299057600080fd5b50565b6000813590506129a28161297c565b92915050565b600080fd5b600080fd5b6000601f19601f8301169050919050565b7f4e487b7100000000000000000000000000000000000000000000000000000000600052604160045260246000fd5b6129fb826129b2565b810181811067ffffffffffffffff82111715612a1a57612a196129c3565b5b80604052505050565b6000612a2d61295e565b9050612a3982826129f2565b919050565b600067ffffffffffffffff821115612a5957612a586129c3565b5b612a62826129b2565b9050602081019050919050565b82818337600083830152505050565b6000612a91612a8c84612a3e565b612a23565b905082815260208101848484011115612aad57612aac6129ad565b5b612ab8848285612a6f565b509392505050565b600082601f830112612ad557612ad46129a8565b5b8135612ae5848260208601612a7e565b91505092915050565b60008060408385031215612b0557612b04612968565b5b6000612b1385828601612993565b925050602083013567ffffffffffffffff811115612b3457612b3361296d565b5b612b4085828601612ac0565b9150509250929050565b60008115159050919050565b612b5f81612b4a565b82525050565b6000602082019050612b7a6000830184612b56565b92915050565b600073ffffffffffffffffffffffffffffffffffffffff82169050919050565b6000612bab82612b80565b9050919050565b612bbb81612ba0565b8114612bc657600080fd5b50565b600081359050612bd881612bb2565b92915050565b600060208284031215612bf457612bf3612968565b5b6000612c0284828501612bc9565b91505092915050565b6000819050919050565b612c1e81612c0b565b8114612c2957600080fd5b50565b600081359050612c3b81612c15565b92915050565b60008060408385031215612c5857612c57612968565b5b6000612c6685828601612bc9565b9250506020612c7785828601612c2c565b9150509250929050565b60008060408385031215612c9857612c97612968565b5b600083013567ffffffffffffffff811115612cb657612cb561296d565b5b612cc285828601612ac0565b9250506020612cd385828601612c2c565b9150509250929050565b612ce681612c0b565b82525050565b600081519050919050565b600082825260208201905092915050565b60005b83811015612d26578082015181840152602081019050612d0b565b60008484015250505050565b6000612d3d82612cec565b612d478185612cf7565b9350612d57818560208601612d08565b612d60816129b2565b840191505092915050565b6000606082019050612d806000830186612cdd565b612d8d6020830185612cdd565b8181036040830152612d9f8184612d32565b9050949350505050565b600067ffffffffffffffff821115612dc457612dc36129c3565b5b612dcd826129b2565b9050602081019050919050565b6000612ded612de884612da9565b612a23565b905082815260208101848484011115612e0957612e086129ad565b5b612e14848285612a6f565b509392505050565b600082601f830112612e3157612e306129a8565b5b8135612e41848260208601612dda565b91505092915050565b600080600080600080600060e0888a031215612e6957612e68612968565b5b6000612e778a828b01612993565b975050602088013567ffffffffffffffff811115612e9857612e9761296d565b5b612ea48a828b01612ac0565b965050604088013567ffffffffffffffff811115612ec557612ec461296d565b5b612ed18a828b01612ac0565b9550506060612ee28a828b01612bc9565b9450506080612ef38a828b01612c2c565b93505060a0612f048a828b01612c2c565b92505060c088013567ffffffffffffffff811115612f2557612f2461296d565b5b612f318a828b01612e1c565b91505092959891949750929550565b60006020820190508181036000830152612f5a8184612d32565b905092915050565b600081519050919050565b600082825260208201905092915050565b6000612f8982612f62565b612f938185612f6d565b9350612fa3818560208601612d08565b612fac816129b2565b840191505092915050565b60006020820190508181036000830152612fd18184612f7e565b905092915050565b600060208284031215612fef57612fee612968565b5b6000612ffd84828501612993565b91505092915050565b61300f81612ba0565b82525050565b600060208201905061302a6000830184613006565b92915050565b61303981612b4a565b811461304457600080fd5b50565b60008135905061305681613030565b92915050565b60006020828403121561307257613071612968565b5b600061308084828501613047565b91505092915050565b61309281612972565b82525050565b60006020820190506130ad6000830184613089565b92915050565b600081519050919050565b600082825260208201905092915050565b6000819050602082019050919050565b600082825260208201905092915050565b60006130fb82612f62565b61310581856130df565b9350613115818560208601612d08565b61311e816129b2565b840191505092915050565b61313281612b4a565b82525050565b61314181612ba0565b82525050565b600060a083016000830151848203600086015261316482826130f0565b9150506020830151848203602086015261317e82826130f0565b91505060408301516131936040860182613129565b5060608301516131a66060860182613138565b5060808301516131b96080860182613129565b508091505092915050565b60006131d08383613147565b905092915050565b6000602082019050919050565b60006131f0826130b3565b6131fa81856130be565b93508360208202850161320c856130cf565b8060005b85811015613248578484038952815161322985826131c4565b9450613234836131d8565b925060208a01995050600181019050613210565b50829750879550505050505092915050565b6000602082019050818103600083015261327481846131e5565b905092915050565b600060a08201905081810360008301526132968188612f7e565b905081810360208301526132aa8187612f7e565b90506132b96040830186612b56565b6132c66060830185613006565b6132d36080830184612b56565b9695505050505050565b6000602082840312156132f3576132f2612968565b5b600082013567ffffffffffffffff8111156133115761331061296d565b5b61331d84828501612ac0565b91505092915050565b600081519050919050565b600082825260208201905092915050565b6000819050602082019050919050565b61335b81612c0b565b82525050565b60006040830160008301516133796000860182613352565b506020830151848203602086015261339182826130f0565b9150508091505092915050565b60006133aa8383613361565b905092915050565b6000602082019050919050565b60006133ca82613326565b6133d48185613331565b9350836020820285016133e685613342565b8060005b858110156134225784840389528151613403858261339e565b945061340e836133b2565b925060208a019950506001810190506133ea565b50829750879550505050505092915050565b6000602082019050818103600083015261344e81846133bf565b905092915050565b600060408201905061346b6000830185612cdd565b818103602083015261347d8184612f7e565b90509392505050565b600081905092915050565b600061349c82612cec565b6134a68185613486565b93506134b6818560208601612d08565b80840191505092915050565b60006134ce8284613491565b915081905092915050565b6000815190506134e881612c15565b92915050565b60006020828403121561350457613503612968565b5b6000613512848285016134d9565b91505092915050565b7f4e487b7100000000000000000000000000000000000000000000000000000000600052603260045260246000fd5b7f4e487b7100000000000000000000000000000000000000000000000000000000600052602260045260246000fd5b6000600282049050600182168061359157607f821691505b6020821081036135a4576135a361354a565b5b50919050565b7f4e487b7100000000000000000000000000000000000000000000000000000000600052601160045260246000fd5b60006135e482612972565b91507fffffffffffffffffffffffffffffffffffffffffffffffffffffffffffffffff8203613616576136156135aa565b5b600182019050919050565b7f596f7520646f6e27742068617665207065726d697373696f6e20746f2063726560008201527f61746520616e206163636f756e74210000000000000000000000000000000000602082015250565b600061367d602f83612f6d565b915061368882613621565b604082019050919050565b600060208201905081810360008301526136ac81613670565b9050919050565b7f496e76616c696420536565640000000000000000000000000000000000000000600082015250565b60006136e9600c83612f6d565b91506136f4826136b3565b602082019050919050565b60006020820190508181036000830152613718816136dc565b9050919050565b7f4f6e6c792061646d696e2063616e20706572666f726d2074686973206163746960008201527f6f6e000000000000000000000000000000000000000000000000000000000000602082015250565b600061377b602283612f6d565b91506137868261371f565b604082019050919050565b600060208201905081810360008301526137aa8161376e565b9050919050565b7f55736572207769746820676976656e206164647265737320646f6573206e6f7460008201527f2065786973742e00000000000000000000000000000000000000000000000000602082015250565b600061380d602783612f6d565b9150613818826137b1565b604082019050919050565b6000602082019050818103600083015261383c81613800565b9050919050565b7f55736572207769746820676976656e206164647265737320646f6573206e6f7460008201527f2065786973740000000000000000000000000000000000000000000000000000602082015250565b600061389f602683612f6d565b91506138aa82613843565b604082019050919050565b600060208201905081810360008301526138ce81613892565b9050919050565b7f54686520676976656e20656d61696c20616c7265616479206578697374732100600082015250565b600061390b601f83612f6d565b9150613916826138d5565b602082019050919050565b6000602082019050818103600083015261393a816138fe565b9050919050565b60008190508160005260206000209050919050565b60006020601f8301049050919050565b600082821b905092915050565b6000600883026139a37fffffffffffffffffffffffffffffffffffffffffffffffffffffffffffffffff82613966565b6139ad8683613966565b95508019841693508086168417925050509392505050565b6000819050919050565b60006139ea6139e56139e084612972565b6139c5565b612972565b9050919050565b6000819050919050565b613a04836139cf565b613a18613a10826139f1565b848454613973565b825550505050565b600090565b613a2d613a20565b613a388184846139fb565b505050565b5b81811015613a5c57613a51600082613a25565b600181019050613a3e565b5050565b601f821115613aa157613a7281613941565b613a7b84613956565b81016020851015613a8a578190505b613a9e613a9685613956565b830182613a3d565b50505b505050565b600082821c905092915050565b6000613ac460001984600802613aa6565b1980831691505092915050565b6000613add8383613ab3565b9150826002028217905092915050565b613af682612f62565b67ffffffffffffffff811115613b0f57613b0e6129c3565b5b613b198254613579565b613b24828285613a60565b600060209050601f831160018114613b575760008415613b45578287015190505b613b4f8582613ad1565b865550613bb7565b601f198416613b6586613941565b60005b82811015613b8d57848901518255600182019150602085019450602081019050613b68565b86831015613baa5784890151613ba6601f891682613ab3565b8355505b6001600288020188555050505b505050505050565b7f496e76616c69642050617373776f726400000000000000000000000000000000600082015250565b6000613bf5601083612f6d565b9150613c0082613bbf565b602082019050919050565b60006020820190508181036000830152613c2481613be8565b9050919050565b7f596f75206861766520746f207370656369667920796f7572206e616d65202100600082015250565b6000613c61601f83612f6d565b9150613c6c82613c2b565b602082019050919050565b60006020820190508181036000830152613c9081613c54565b9050919050565b600081905092915050565b6000613cad82612f62565b613cb78185613c97565b9350613cc7818560208601612d08565b80840191505092915050565b6000613cdf8284613ca2565b915081905092915050565b60008190508160005260206000209050919050565b601f821115613d4057613d1181613cea565b613d1a84613956565b81016020851015613d29578190505b613d3d613d3585613956565b830182613a3d565b50505b505050565b613d4e82612cec565b67ffffffffffffffff811115613d6757613d666129c3565b5b613d718254613579565b613d7c828285613cff565b600060209050601f831160018114613daf5760008415613d9d578287015190505b613da78582613ad1565b865550613e0f565b601f198416613dbd86613cea565b60005b82811015613de557848901518255600182019150602085019450602081019050613dc0565b86831015613e025784890151613dfe601f891682613ab3565b8355505b6001600288020188555050505b505050505050565b6000613e2282612972565b9150613e2d83612972565b9250828203905081811115613e4557613e446135aa565b5b92915050565b600081549050613e5a81613579565b9050919050565b818103613e6f575050613f47565b613e7882613e4b565b67ffffffffffffffff811115613e9157613e906129c3565b5b613e9b8254613579565b613ea6828285613a60565b6000601f831160018114613ed55760008415613ec3578287015490505b613ecd8582613ad1565b865550613f40565b601f198416613ee387613941565b9650613eee86613941565b60005b82811015613f1657848901548255600182019150600185019450602081019050613ef1565b86831015613f335784890154613f2f601f891682613ab3565b8355505b6001600288020188555050505b5050505050505b565b7f4e487b7100000000000000000000000000000000000000000000000000000000600052603160045260246000fd5b7f4944206e6f7420666f756e640000000000000000000000000000000000000000600082015250565b6000613fae600c83612f6d565b9150613fb982613f78565b602082019050919050565b60006020820190508181036000830152613fdd81613fa1565b9050919050565b7f55736572207769746820676976656e206164647265737320646f6e277420657860008201527f6973740000000000000000000000000000000000000000000000000000000000602082015250565b6000614040602383612f6d565b915061404b82613fe4565b604082019050919050565b6000602082019050818103600083015261406f81614033565b905091905056fea2646970667358221220d7d2f579b30bc96a01113b8fbbef183658ba77cd0973acb210b354874588724a64736f6c63430008120033",
  "linkReferences": {},
  "deployedLinkReferences": {}
}